{"abi":[{"type":"constructor","inputs":[],"stateMutability":"nonpayable"},{"type":"function","name":"addLiquidity","inputs":[{"name":"amount0","type":"uint256","internalType":"uint256"},{"name":"amount1","type":"uint256","internalType":"uint256"}],"outputs":[{"name":"liquidity","type":"uint256","internalType":"uint256"}],"stateMutability":"nonpayable"},{"type":"function","name":"allowance","inputs":[{"name":"owner","type":"address","internalType":"address"},{"name":"spender","type":"address","internalType":"address"}],"outputs":[{"name":"","type":"uint256","internalType":"uint256"}],"stateMutability":"view"},{"type":"function","name":"approve","inputs":[{"name":"spender","type":"address","internalType":"address"},{"name":"value","type":"uint256","internalType":"uint256"}],"outputs":[{"name":"","type":"bool","internalType":"bool"}],"stateMutability":"nonpayable"},{"type":"function","name":"balanceOf","inputs":[{"name":"account","type":"address","internalType":"address"}],"outputs":[{"name":"","type":"uint256","internalType":"uint256"}],"stateMutability":"view"},{"type":"function","name":"decimals","inputs":[],"outputs":[{"name":"","type":"uint8","internalType":"uint8"}],"stateMutability":"view"},{"type":"function","name":"getAmountsOut","inputs":[{"name":"amountIn","type":"uint256","internalType":"uint256"},{"name":"tokenIn","type":"address","internalType":"address"},{"name":"tokenOut","type":"address","internalType":"address"}],"outputs":[{"name":"amountOut","type":"uint256","internalType":"uint256"}],"stateMutability":"view"},{"type":"function","name":"getReserves","inputs":[],"outputs":[{"name":"","type":"uint256","internalType":"uint256"},{"name":"","type":"uint256","internalType":"uint256"}],"stateMutability":"view"},{"type":"function","name":"initialize","inputs":[{"name":"_token0","type":"address","internalType":"address"},{"name":"_token1","type":"address","internalType":"address"}],"outputs":[],"stateMutability":"nonpayable"},{"type":"function","name":"name","inputs":[],"outputs":[{"name":"","type":"string","internalType":"string"}],"stateMutability":"view"},{"type":"function","name":"removeLiquidity","inputs":[{"name":"liquidity","type":"uint256","internalType":"uint256"}],"outputs":[{"name":"amount0","type":"uint256","internalType":"uint256"},{"name":"amount1","type":"uint256","internalType":"uint256"}],"stateMutability":"nonpayable"},{"type":"function","name":"reserve0","inputs":[],"outputs":[{"name":"","type":"uint256","internalType":"uint256"}],"stateMutability":"view"},{"type":"function","name":"reserve1","inputs":[],"outputs":[{"name":"","type":"uint256","internalType":"uint256"}],"stateMutability":"view"},{"type":"function","name":"swapExactTokensForTokens","inputs":[{"name":"amountIn","type":"uint256","internalType":"uint256"},{"name":"amountOutMin","type":"uint256","internalType":"uint256"},{"name":"tokenIn","type":"address","internalType":"address"},{"name":"tokenOut","type":"address","internalType":"address"},{"name":"to","type":"address","internalType":"address"}],"outputs":[],"stateMutability":"nonpayable"},{"type":"function","name":"symbol","inputs":[],"outputs":[{"name":"","type":"string","internalType":"string"}],"stateMutability":"view"},{"type":"function","name":"token0","inputs":[],"outputs":[{"name":"","type":"address","internalType":"contract IERC20"}],"stateMutability":"view"},{"type":"function","name":"token1","inputs":[],"outputs":[{"name":"","type":"address","internalType":"contract IERC20"}],"stateMutability":"view"},{"type":"function","name":"totalSupply","inputs":[],"outputs":[{"name":"","type":"uint256","internalType":"uint256"}],"stateMutability":"view"},{"type":"function","name":"transfer","inputs":[{"name":"to","type":"address","internalType":"address"},{"name":"value","type":"uint256","internalType":"uint256"}],"outputs":[{"name":"","type":"bool","internalType":"bool"}],"stateMutability":"nonpayable"},{"type":"function","name":"transferFrom","inputs":[{"name":"from","type":"address","internalType":"address"},{"name":"to","type":"address","internalType":"address"},{"name":"value","type":"uint256","internalType":"uint256"}],"outputs":[{"name":"","type":"bool","internalType":"bool"}],"stateMutability":"nonpayable"},{"type":"event","name":"Approval","inputs":[{"name":"owner","type":"address","indexed":true,"internalType":"address"},{"name":"spender","type":"address","indexed":true,"internalType":"address"},{"name":"value","type":"uint256","indexed":false,"internalType":"uint256"}],"anonymous":false},{"type":"event","name":"Transfer","inputs":[{"name":"from","type":"address","indexed":true,"internalType":"address"},{"name":"to","type":"address","indexed":true,"internalType":"address"},{"name":"value","type":"uint256","indexed":false,"internalType":"uint256"}],"anonymous":false},{"type":"error","name":"ERC20InsufficientAllowance","inputs":[{"name":"spender","type":"address","internalType":"address"},{"name":"allowance","type":"uint256","internalType":"uint256"},{"name":"needed","type":"uint256","internalType":"uint256"}]},{"type":"error","name":"ERC20InsufficientBalance","inputs":[{"name":"sender","type":"address","internalType":"address"},{"name":"balance","type":"uint256","internalType":"uint256"},{"name":"needed","type":"uint256","internalType":"uint256"}]},{"type":"error","name":"ERC20InvalidApprover","inputs":[{"name":"approver","type":"address","internalType":"address"}]},{"type":"error","name":"ERC20InvalidReceiver","inputs":[{"name":"receiver","type":"address","internalType":"address"}]},{"type":"error","name":"ERC20InvalidSender","inputs":[{"name":"sender","type":"address","internalType":"address"}]},{"type":"error","name":"ERC20InvalidSpender","inputs":[{"name":"spender","type":"address","internalType":"address"}]}],"bytecode":{"object":"0x608060405234801562000010575f80fd5b506040518060400160405280600e81526020017f4c6971756964697479546f6b656e0000000000000000000000000000000000008152506040518060400160405280600381526020017f4c5054000000000000000000000000000000000000000000000000000000000081525081600390816200008e91906200030d565b508060049081620000a091906200030d565b505050620003f1565b5f81519050919050565b7f4e487b71000000000000000000000000000000000000000000000000000000005f52604160045260245ffd5b7f4e487b71000000000000000000000000000000000000000000000000000000005f52602260045260245ffd5b5f60028204905060018216806200012557607f821691505b6020821081036200013b576200013a620000e0565b5b50919050565b5f819050815f5260205f209050919050565b5f6020601f8301049050919050565b5f82821b905092915050565b5f600883026200019f7fffffffffffffffffffffffffffffffffffffffffffffffffffffffffffffffff8262000162565b620001ab868362000162565b95508019841693508086168417925050509392505050565b5f819050919050565b5f819050919050565b5f620001f5620001ef620001e984620001c3565b620001cc565b620001c3565b9050919050565b5f819050919050565b6200021083620001d5565b620002286200021f82620001fc565b8484546200016e565b825550505050565b5f90565b6200023e62000230565b6200024b81848462000205565b505050565b5b818110156200027257620002665f8262000234565b60018101905062000251565b5050565b601f821115620002c1576200028b8162000141565b620002968462000153565b81016020851015620002a6578190505b620002be620002b58562000153565b83018262000250565b50505b505050565b5f82821c905092915050565b5f620002e35f1984600802620002c6565b1980831691505092915050565b5f620002fd8383620002d2565b9150826002028217905092915050565b6200031882620000a9565b67ffffffffffffffff811115620003345762000333620000b3565b5b6200034082546200010d565b6200034d82828562000276565b5f60209050601f83116001811462000383575f84156200036e578287015190505b6200037a8582620002f0565b865550620003e9565b601f198416620003938662000141565b5f5b82811015620003bc5784890151825560018201915060208501945060208101905062000395565b86831015620003dc5784890151620003d8601f891682620002d2565b8355505b6001600288020188555050505b505050505050565b61279780620003ff5f395ff3fe608060405234801561000f575f80fd5b506004361061011f575f3560e01c8063485cc955116100ab5780639cd441da1161006f5780639cd441da1461030d578063a9059cbb1461033d578063baf7fa991461036d578063d21220a71461039d578063dd62ed3e146103bb5761011f565b8063485cc955146102545780635a76f25e1461027057806370a082311461028e57806395d89b41146102be5780639c8f9f23146102dc5761011f565b806318160ddd116100f257806318160ddd146101ae57806323b872dd146101cc578063268a380b146101fc578063313ce56714610218578063443cb4bc146102365761011f565b806306fdde03146101235780630902f1ac14610141578063095ea7b3146101605780630dfe168114610190575b5f80fd5b61012b6103eb565b6040516101389190611dac565b60405180910390f35b61014961047b565b604051610157929190611de4565b60405180910390f35b61017a60048036038101906101759190611e93565b61048b565b6040516101879190611eeb565b60405180910390f35b6101986104ad565b6040516101a59190611f5f565b60405180910390f35b6101b66104d2565b6040516101c39190611f78565b60405180910390f35b6101e660048036038101906101e19190611f91565b6104db565b6040516101f39190611eeb565b60405180910390f35b61021660048036038101906102119190611fe1565b610509565b005b610220610b2c565b60405161022d9190612073565b60405180910390f35b61023e610b34565b60405161024b9190611f78565b60405180910390f35b61026e6004803603810190610269919061208c565b610b3a565b005b610278610bbe565b6040516102859190611f78565b60405180910390f35b6102a860048036038101906102a391906120ca565b610bc4565b6040516102b59190611f78565b60405180910390f35b6102c6610c09565b6040516102d39190611dac565b60405180910390f35b6102f660048036038101906102f191906120f5565b610c99565b604051610304929190611de4565b60405180910390f35b61032760048036038101906103229190612120565b610ee2565b6040516103349190611f78565b60405180910390f35b61035760048036038101906103529190611e93565b61124f565b6040516103649190611eeb565b60405180910390f35b6103876004803603810190610382919061215e565b611271565b6040516103949190611f78565b60405180910390f35b6103a561156e565b6040516103b29190611f5f565b60405180910390f35b6103d560048036038101906103d0919061208c565b611593565b6040516103e29190611f78565b60405180910390f35b6060600380546103fa906121db565b80601f0160208091040260200160405190810160405280929190818152602001828054610426906121db565b80156104715780601f1061044857610100808354040283529160200191610471565b820191905f5260205f20905b81548152906001019060200180831161045457829003601f168201915b5050505050905090565b5f80600754600854915091509091565b5f80610495611615565b90506104a281858561161c565b600191505092915050565b60055f9054906101000a900473ffffffffffffffffffffffffffffffffffffffff1681565b5f600254905090565b5f806104e5611615565b90506104f285828561162e565b6104fd8585856116c1565b60019150509392505050565b60055f9054906101000a900473ffffffffffffffffffffffffffffffffffffffff1673ffffffffffffffffffffffffffffffffffffffff168373ffffffffffffffffffffffffffffffffffffffff1614806105b0575060065f9054906101000a900473ffffffffffffffffffffffffffffffffffffffff1673ffffffffffffffffffffffffffffffffffffffff168373ffffffffffffffffffffffffffffffffffffffff16145b6105ef576040517f08c379a00000000000000000000000000000000000000000000000000000000081526004016105e690612255565b60405180910390fd5b60055f9054906101000a900473ffffffffffffffffffffffffffffffffffffffff1673ffffffffffffffffffffffffffffffffffffffff168273ffffffffffffffffffffffffffffffffffffffff161480610696575060065f9054906101000a900473ffffffffffffffffffffffffffffffffffffffff1673ffffffffffffffffffffffffffffffffffffffff168273ffffffffffffffffffffffffffffffffffffffff16145b6106d5576040517f08c379a00000000000000000000000000000000000000000000000000000000081526004016106cc906122bd565b60405180910390fd5b8173ffffffffffffffffffffffffffffffffffffffff168373ffffffffffffffffffffffffffffffffffffffff1603610743576040517f08c379a000000000000000000000000000000000000000000000000000000000815260040161073a90612325565b60405180910390fd5b5f805f8060055f9054906101000a900473ffffffffffffffffffffffffffffffffffffffff1673ffffffffffffffffffffffffffffffffffffffff168773ffffffffffffffffffffffffffffffffffffffff16146107ea5760065f9054906101000a900473ffffffffffffffffffffffffffffffffffffffff1660055f9054906101000a900473ffffffffffffffffffffffffffffffffffffffff16600854600754610835565b60055f9054906101000a900473ffffffffffffffffffffffffffffffffffffffff1660065f9054906101000a900473ffffffffffffffffffffffffffffffffffffffff166007546008545b93509350935093508373ffffffffffffffffffffffffffffffffffffffff166323b872dd33308c6040518463ffffffff1660e01b815260040161087a93929190612352565b6020604051808303815f875af1158015610896573d5f803e3d5ffd5b505050506040513d601f19601f820116820180604052508101906108ba91906123b1565b505f8473ffffffffffffffffffffffffffffffffffffffff166370a08231306040518263ffffffff1660e01b81526004016108f591906123dc565b602060405180830381865afa158015610910573d5f803e3d5ffd5b505050506040513d601f19601f820116820180604052508101906109349190612409565b90505f6103e584836109469190612461565b6109509190612494565b90505f838261095f9190612494565b90505f826103e8876109719190612494565b61097b91906124d5565b90505f818361098a9190612535565b90508c8110156109cf576040517f08c379a00000000000000000000000000000000000000000000000000000000081526004016109c6906125af565b60405180910390fd5b8773ffffffffffffffffffffffffffffffffffffffff1663a9059cbb8b836040518363ffffffff1660e01b8152600401610a0a9291906125cd565b6020604051808303815f875af1158015610a26573d5f803e3d5ffd5b505050506040513d601f19601f82011682018060405250810190610a4a91906123b1565b50610b1c60055f9054906101000a900473ffffffffffffffffffffffffffffffffffffffff1673ffffffffffffffffffffffffffffffffffffffff168d73ffffffffffffffffffffffffffffffffffffffff1614610aaa57600754610aac565b855b60055f9054906101000a900473ffffffffffffffffffffffffffffffffffffffff1673ffffffffffffffffffffffffffffffffffffffff168e73ffffffffffffffffffffffffffffffffffffffff1614610b0857600854610b17565b82600854610b169190612461565b5b6117b1565b5050505050505050505050505050565b5f6012905090565b60075481565b8160055f6101000a81548173ffffffffffffffffffffffffffffffffffffffff021916908373ffffffffffffffffffffffffffffffffffffffff1602179055508060065f6101000a81548173ffffffffffffffffffffffffffffffffffffffff021916908373ffffffffffffffffffffffffffffffffffffffff1602179055505050565b60085481565b5f805f8373ffffffffffffffffffffffffffffffffffffffff1673ffffffffffffffffffffffffffffffffffffffff1681526020019081526020015f20549050919050565b606060048054610c18906121db565b80601f0160208091040260200160405190810160405280929190818152602001828054610c44906121db565b8015610c8f5780601f10610c6657610100808354040283529160200191610c8f565b820191905f5260205f20905b815481529060010190602001808311610c7257829003601f168201915b5050505050905090565b5f8082610ca533610bc4565b1015610ce6576040517f08c379a0000000000000000000000000000000000000000000000000000000008152600401610cdd9061263e565b60405180910390fd5b5f610cef6104d2565b90508060075485610d009190612494565b610d0a9190612535565b92508060085485610d1b9190612494565b610d259190612535565b91505f83118015610d3557505f82115b610d74576040517f08c379a0000000000000000000000000000000000000000000000000000000008152600401610d6b906126a6565b60405180910390fd5b610d7e33856117c3565b610da283600754610d8f9190612461565b83600854610d9d9190612461565b6117b1565b60055f9054906101000a900473ffffffffffffffffffffffffffffffffffffffff1673ffffffffffffffffffffffffffffffffffffffff1663a9059cbb33856040518363ffffffff1660e01b8152600401610dfe9291906125cd565b6020604051808303815f875af1158015610e1a573d5f803e3d5ffd5b505050506040513d601f19601f82011682018060405250810190610e3e91906123b1565b5060065f9054906101000a900473ffffffffffffffffffffffffffffffffffffffff1673ffffffffffffffffffffffffffffffffffffffff1663a9059cbb33846040518363ffffffff1660e01b8152600401610e9b9291906125cd565b6020604051808303815f875af1158015610eb7573d5f803e3d5ffd5b505050506040513d601f19601f82011682018060405250810190610edb91906123b1565b5050915091565b5f60055f9054906101000a900473ffffffffffffffffffffffffffffffffffffffff1673ffffffffffffffffffffffffffffffffffffffff166323b872dd3330866040518463ffffffff1660e01b8152600401610f4193929190612352565b6020604051808303815f875af1158015610f5d573d5f803e3d5ffd5b505050506040513d601f19601f82011682018060405250810190610f8191906123b1565b5060065f9054906101000a900473ffffffffffffffffffffffffffffffffffffffff1673ffffffffffffffffffffffffffffffffffffffff166323b872dd3330856040518463ffffffff1660e01b8152600401610fe093929190612352565b6020604051808303815f875af1158015610ffc573d5f803e3d5ffd5b505050506040513d601f19601f8201168201806040525081019061102091906123b1565b505f60055f9054906101000a900473ffffffffffffffffffffffffffffffffffffffff1673ffffffffffffffffffffffffffffffffffffffff166370a08231306040518263ffffffff1660e01b815260040161107c91906123dc565b602060405180830381865afa158015611097573d5f803e3d5ffd5b505050506040513d601f19601f820116820180604052508101906110bb9190612409565b90505f60065f9054906101000a900473ffffffffffffffffffffffffffffffffffffffff1673ffffffffffffffffffffffffffffffffffffffff166370a08231306040518263ffffffff1660e01b815260040161111891906123dc565b602060405180830381865afa158015611133573d5f803e3d5ffd5b505050506040513d601f19601f820116820180604052508101906111579190612409565b90505f600754836111689190612461565b90505f600854836111799190612461565b90505f6111846104d2565b036111a45761119d81836111989190612494565b611842565b94506111ef565b6111ec6007546111b26104d2565b846111bd9190612494565b6111c79190612535565b6008546111d26104d2565b846111dd9190612494565b6111e79190612535565b6118a3565b94505b5f8511611231576040517f08c379a00000000000000000000000000000000000000000000000000000000081526004016112289061270e565b60405180910390fd5b61123b33866118bb565b61124584846117b1565b5050505092915050565b5f80611259611615565b90506112668185856116c1565b600191505092915050565b5f60055f9054906101000a900473ffffffffffffffffffffffffffffffffffffffff1673ffffffffffffffffffffffffffffffffffffffff168373ffffffffffffffffffffffffffffffffffffffff161480611319575060065f9054906101000a900473ffffffffffffffffffffffffffffffffffffffff1673ffffffffffffffffffffffffffffffffffffffff168373ffffffffffffffffffffffffffffffffffffffff16145b611358576040517f08c379a000000000000000000000000000000000000000000000000000000000815260040161134f90612255565b60405180910390fd5b60055f9054906101000a900473ffffffffffffffffffffffffffffffffffffffff1673ffffffffffffffffffffffffffffffffffffffff168273ffffffffffffffffffffffffffffffffffffffff1614806113ff575060065f9054906101000a900473ffffffffffffffffffffffffffffffffffffffff1673ffffffffffffffffffffffffffffffffffffffff168273ffffffffffffffffffffffffffffffffffffffff16145b61143e576040517f08c379a0000000000000000000000000000000000000000000000000000000008152600401611435906122bd565b60405180910390fd5b8173ffffffffffffffffffffffffffffffffffffffff168373ffffffffffffffffffffffffffffffffffffffff16036114ac576040517f08c379a00000000000000000000000000000000000000000000000000000000081526004016114a390612325565b60405180910390fd5b5f8060055f9054906101000a900473ffffffffffffffffffffffffffffffffffffffff1673ffffffffffffffffffffffffffffffffffffffff168573ffffffffffffffffffffffffffffffffffffffff161461150d57600854600754611514565b6007546008545b915091505f6103e5876115279190612494565b90505f82826115369190612494565b90505f826103e8866115489190612494565b61155291906124d5565b905080826115609190612535565b955050505050509392505050565b60065f9054906101000a900473ffffffffffffffffffffffffffffffffffffffff1681565b5f60015f8473ffffffffffffffffffffffffffffffffffffffff1673ffffffffffffffffffffffffffffffffffffffff1681526020019081526020015f205f8373ffffffffffffffffffffffffffffffffffffffff1673ffffffffffffffffffffffffffffffffffffffff1681526020019081526020015f2054905092915050565b5f33905090565b611629838383600161193a565b505050565b5f6116398484611593565b90507fffffffffffffffffffffffffffffffffffffffffffffffffffffffffffffffff8110156116bb57818110156116ac578281836040517ffb8f41b20000000000000000000000000000000000000000000000000000000081526004016116a39392919061272c565b60405180910390fd5b6116ba84848484035f61193a565b5b50505050565b5f73ffffffffffffffffffffffffffffffffffffffff168373ffffffffffffffffffffffffffffffffffffffff1603611731575f6040517f96c6fd1e00000000000000000000000000000000000000000000000000000000815260040161172891906123dc565b60405180910390fd5b5f73ffffffffffffffffffffffffffffffffffffffff168273ffffffffffffffffffffffffffffffffffffffff16036117a1575f6040517fec442f0500000000000000000000000000000000000000000000000000000000815260040161179891906123dc565b60405180910390fd5b6117ac838383611b09565b505050565b81600781905550806008819055505050565b5f73ffffffffffffffffffffffffffffffffffffffff168273ffffffffffffffffffffffffffffffffffffffff1603611833575f6040517f96c6fd1e00000000000000000000000000000000000000000000000000000000815260040161182a91906123dc565b60405180910390fd5b61183e825f83611b09565b5050565b5f80600260018461185391906124d5565b61185d9190612535565b90505f8390505b8082101561189957819050600282838661187e9190612535565b61188891906124d5565b6118929190612535565b9150611864565b8092505050919050565b5f8183106118b157816118b3565b825b905092915050565b5f73ffffffffffffffffffffffffffffffffffffffff168273ffffffffffffffffffffffffffffffffffffffff160361192b575f6040517fec442f0500000000000000000000000000000000000000000000000000000000815260040161192291906123dc565b60405180910390fd5b6119365f8383611b09565b5050565b5f73ffffffffffffffffffffffffffffffffffffffff168473ffffffffffffffffffffffffffffffffffffffff16036119aa575f6040517fe602df050000000000000000000000000000000000000000000000000000000081526004016119a191906123dc565b60405180910390fd5b5f73ffffffffffffffffffffffffffffffffffffffff168373ffffffffffffffffffffffffffffffffffffffff1603611a1a575f6040517f94280d62000000000000000000000000000000000000000000000000000000008152600401611a1191906123dc565b60405180910390fd5b8160015f8673ffffffffffffffffffffffffffffffffffffffff1673ffffffffffffffffffffffffffffffffffffffff1681526020019081526020015f205f8573ffffffffffffffffffffffffffffffffffffffff1673ffffffffffffffffffffffffffffffffffffffff1681526020019081526020015f20819055508015611b03578273ffffffffffffffffffffffffffffffffffffffff168473ffffffffffffffffffffffffffffffffffffffff167f8c5be1e5ebec7d5bd14f71427d1e84f3dd0314c0f7b2291e5b200ac8c7c3b92584604051611afa9190611f78565b60405180910390a35b50505050565b5f73ffffffffffffffffffffffffffffffffffffffff168373ffffffffffffffffffffffffffffffffffffffff1603611b59578060025f828254611b4d91906124d5565b92505081905550611c27565b5f805f8573ffffffffffffffffffffffffffffffffffffffff1673ffffffffffffffffffffffffffffffffffffffff1681526020019081526020015f2054905081811015611be2578381836040517fe450d38c000000000000000000000000000000000000000000000000000000008152600401611bd99392919061272c565b60405180910390fd5b8181035f808673ffffffffffffffffffffffffffffffffffffffff1673ffffffffffffffffffffffffffffffffffffffff1681526020019081526020015f2081905550505b5f73ffffffffffffffffffffffffffffffffffffffff168273ffffffffffffffffffffffffffffffffffffffff1603611c6e578060025f8282540392505081905550611cb8565b805f808473ffffffffffffffffffffffffffffffffffffffff1673ffffffffffffffffffffffffffffffffffffffff1681526020019081526020015f205f82825401925050819055505b8173ffffffffffffffffffffffffffffffffffffffff168373ffffffffffffffffffffffffffffffffffffffff167fddf252ad1be2c89b69c2b068fc378daa952ba7f163c4a11628f55a4df523b3ef83604051611d159190611f78565b60405180910390a3505050565b5f81519050919050565b5f82825260208201905092915050565b5f5b83811015611d59578082015181840152602081019050611d3e565b5f8484015250505050565b5f601f19601f8301169050919050565b5f611d7e82611d22565b611d888185611d2c565b9350611d98818560208601611d3c565b611da181611d64565b840191505092915050565b5f6020820190508181035f830152611dc48184611d74565b905092915050565b5f819050919050565b611dde81611dcc565b82525050565b5f604082019050611df75f830185611dd5565b611e046020830184611dd5565b9392505050565b5f80fd5b5f73ffffffffffffffffffffffffffffffffffffffff82169050919050565b5f611e3882611e0f565b9050919050565b611e4881611e2e565b8114611e52575f80fd5b50565b5f81359050611e6381611e3f565b92915050565b611e7281611dcc565b8114611e7c575f80fd5b50565b5f81359050611e8d81611e69565b92915050565b5f8060408385031215611ea957611ea8611e0b565b5b5f611eb685828601611e55565b9250506020611ec785828601611e7f565b9150509250929050565b5f8115159050919050565b611ee581611ed1565b82525050565b5f602082019050611efe5f830184611edc565b92915050565b5f819050919050565b5f611f27611f22611f1d84611e0f565b611f04565b611e0f565b9050919050565b5f611f3882611f0d565b9050919050565b5f611f4982611f2e565b9050919050565b611f5981611f3f565b82525050565b5f602082019050611f725f830184611f50565b92915050565b5f602082019050611f8b5f830184611dd5565b92915050565b5f805f60608486031215611fa857611fa7611e0b565b5b5f611fb586828701611e55565b9350506020611fc686828701611e55565b9250506040611fd786828701611e7f565b9150509250925092565b5f805f805f60a08688031215611ffa57611ff9611e0b565b5b5f61200788828901611e7f565b955050602061201888828901611e7f565b945050604061202988828901611e55565b935050606061203a88828901611e55565b925050608061204b88828901611e55565b9150509295509295909350565b5f60ff82169050919050565b61206d81612058565b82525050565b5f6020820190506120865f830184612064565b92915050565b5f80604083850312156120a2576120a1611e0b565b5b5f6120af85828601611e55565b92505060206120c085828601611e55565b9150509250929050565b5f602082840312156120df576120de611e0b565b5b5f6120ec84828501611e55565b91505092915050565b5f6020828403121561210a57612109611e0b565b5b5f61211784828501611e7f565b91505092915050565b5f806040838503121561213657612135611e0b565b5b5f61214385828601611e7f565b925050602061215485828601611e7f565b9150509250929050565b5f805f6060848603121561217557612174611e0b565b5b5f61218286828701611e7f565b935050602061219386828701611e55565b92505060406121a486828701611e55565b9150509250925092565b7f4e487b71000000000000000000000000000000000000000000000000000000005f52602260045260245ffd5b5f60028204905060018216806121f257607f821691505b602082108103612205576122046121ae565b5b50919050565b7f494e56414c49445f544f4b454e5f494e000000000000000000000000000000005f82015250565b5f61223f601083611d2c565b915061224a8261220b565b602082019050919050565b5f6020820190508181035f83015261226c81612233565b9050919050565b7f494e56414c49445f544f4b454e5f4f55540000000000000000000000000000005f82015250565b5f6122a7601183611d2c565b91506122b282612273565b602082019050919050565b5f6020820190508181035f8301526122d48161229b565b9050919050565b7f4944454e544943414c5f414444524553534553000000000000000000000000005f82015250565b5f61230f601383611d2c565b915061231a826122db565b602082019050919050565b5f6020820190508181035f83015261233c81612303565b9050919050565b61234c81611e2e565b82525050565b5f6060820190506123655f830186612343565b6123726020830185612343565b61237f6040830184611dd5565b949350505050565b61239081611ed1565b811461239a575f80fd5b50565b5f815190506123ab81612387565b92915050565b5f602082840312156123c6576123c5611e0b565b5b5f6123d38482850161239d565b91505092915050565b5f6020820190506123ef5f830184612343565b92915050565b5f8151905061240381611e69565b92915050565b5f6020828403121561241e5761241d611e0b565b5b5f61242b848285016123f5565b91505092915050565b7f4e487b71000000000000000000000000000000000000000000000000000000005f52601160045260245ffd5b5f61246b82611dcc565b915061247683611dcc565b925082820390508181111561248e5761248d612434565b5b92915050565b5f61249e82611dcc565b91506124a983611dcc565b92508282026124b781611dcc565b915082820484148315176124ce576124cd612434565b5b5092915050565b5f6124df82611dcc565b91506124ea83611dcc565b925082820190508082111561250257612501612434565b5b92915050565b7f4e487b71000000000000000000000000000000000000000000000000000000005f52601260045260245ffd5b5f61253f82611dcc565b915061254a83611dcc565b92508261255a57612559612508565b5b828204905092915050565b7f494e53554646494349454e545f4f55545055545f414d4f554e540000000000005f82015250565b5f612599601a83611d2c565b91506125a482612565565b602082019050919050565b5f6020820190508181035f8301526125c68161258d565b9050919050565b5f6040820190506125e05f830185612343565b6125ed6020830184611dd5565b9392505050565b7f494e53554646494349454e545f4c4951554944495459000000000000000000005f82015250565b5f612628601683611d2c565b9150612633826125f4565b602082019050919050565b5f6020820190508181035f8301526126558161261c565b9050919050565b7f494e53554646494349454e545f4c49515549444954595f4255524e45440000005f82015250565b5f612690601d83611d2c565b915061269b8261265c565b602082019050919050565b5f6020820190508181035f8301526126bd81612684565b9050919050565b7f494e53554646494349454e545f4c49515549444954595f4d494e5445440000005f82015250565b5f6126f8601d83611d2c565b9150612703826126c4565b602082019050919050565b5f6020820190508181035f830152612725816126ec565b9050919050565b5f60608201905061273f5f830186612343565b61274c6020830185611dd5565b6127596040830184611dd5565b94935050505056fea2646970667358221220a8f61e2b63294e1fb760e22016e13342da3e242f78eda5ce24d512b032888e1964736f6c63430008180033","linkReferences":{}},"methodIdentifiers":{"addLiquidity(uint256,uint256)":"9cd441da","allowance(address,address)":"dd62ed3e","approve(address,uint256)":"095ea7b3","balanceOf(address)":"70a08231","decimals()":"313ce567","getAmountsOut(uint256,address,address)":"baf7fa99","getReserves()":"0902f1ac","initialize(address,address)":"485cc955","name()":"06fdde03","removeLiquidity(uint256)":"9c8f9f23","reserve0()":"443cb4bc","reserve1()":"5a76f25e","swapExactTokensForTokens(uint256,uint256,address,address,address)":"268a380b","symbol()":"95d89b41","token0()":"0dfe1681","token1()":"d21220a7","totalSupply()":"18160ddd","transfer(address,uint256)":"a9059cbb","transferFrom(address,address,uint256)":"23b872dd"},"id":34}